{
  "contractName": "ReceiveUSDC",
  "abi": [
    {
      "inputs": [
        {
          "internalType": "address",
          "name": "_usdcAddress",
          "type": "address"
        }
      ],
      "stateMutability": "nonpayable",
      "type": "constructor"
    },
    {
      "anonymous": false,
      "inputs": [
        {
          "indexed": false,
          "internalType": "address",
          "name": "sender",
          "type": "address"
        },
        {
          "indexed": false,
          "internalType": "uint256",
          "name": "amount",
          "type": "uint256"
        }
      ],
      "name": "Received",
      "type": "event"
    },
    {
      "inputs": [],
      "name": "usdcToken",
      "outputs": [
        {
          "internalType": "contract IERC20",
          "name": "",
          "type": "address"
        }
      ],
      "stateMutability": "view",
      "type": "function",
      "constant": true
    },
    {
      "inputs": [
        {
          "internalType": "uint256",
          "name": "amount",
          "type": "uint256"
        }
      ],
      "name": "receiveUSDC",
      "outputs": [],
      "stateMutability": "nonpayable",
      "type": "function"
    },
    {
      "inputs": [],
      "name": "getBalance",
      "outputs": [
        {
          "internalType": "uint256",
          "name": "",
          "type": "uint256"
        }
      ],
      "stateMutability": "view",
      "type": "function",
      "constant": true
    }
  ],
  "bytecode": "0x608060405234801561000f575f80fd5b5060405161067e38038061067e833981810160405281019061003191906100d4565b805f806101000a81548173ffffffffffffffffffffffffffffffffffffffff021916908373ffffffffffffffffffffffffffffffffffffffff160217905550506100ff565b5f80fd5b5f73ffffffffffffffffffffffffffffffffffffffff82169050919050565b5f6100a38261007a565b9050919050565b6100b381610099565b81146100bd575f80fd5b50565b5f815190506100ce816100aa565b92915050565b5f602082840312156100e9576100e8610076565b5b5f6100f6848285016100c0565b91505092915050565b6105728061010c5f395ff3fe608060405234801561000f575f80fd5b506004361061003f575f3560e01c806311eac8551461004357806312065fe014610061578063ddb4acd01461007f575b5f80fd5b61004b61009b565b60405161005891906102ed565b60405180910390f35b6100696100be565b604051610076919061031e565b60405180910390f35b61009960048036038101906100949190610365565b61015c565b005b5f8054906101000a900473ffffffffffffffffffffffffffffffffffffffff1681565b5f805f9054906101000a900473ffffffffffffffffffffffffffffffffffffffff1673ffffffffffffffffffffffffffffffffffffffff166370a08231306040518263ffffffff1660e01b815260040161011891906103b0565b602060405180830381865afa158015610133573d5f803e3d5ffd5b505050506040513d601f19601f8201168201806040525081019061015791906103dd565b905090565b5f8054906101000a900473ffffffffffffffffffffffffffffffffffffffff1673ffffffffffffffffffffffffffffffffffffffff166323b872dd3330846040518463ffffffff1660e01b81526004016101b893929190610408565b6020604051808303815f875af11580156101d4573d5f803e3d5ffd5b505050506040513d601f19601f820116820180604052508101906101f89190610472565b610237576040517f08c379a000000000000000000000000000000000000000000000000000000000815260040161022e906104f7565b60405180910390fd5b7f88a5966d370b9919b20f3e2c13ff65706f196a4e32cc2c12bf57088f885258743382604051610268929190610515565b60405180910390a150565b5f73ffffffffffffffffffffffffffffffffffffffff82169050919050565b5f819050919050565b5f6102b56102b06102ab84610273565b610292565b610273565b9050919050565b5f6102c68261029b565b9050919050565b5f6102d7826102bc565b9050919050565b6102e7816102cd565b82525050565b5f6020820190506103005f8301846102de565b92915050565b5f819050919050565b61031881610306565b82525050565b5f6020820190506103315f83018461030f565b92915050565b5f80fd5b61034481610306565b811461034e575f80fd5b50565b5f8135905061035f8161033b565b92915050565b5f6020828403121561037a57610379610337565b5b5f61038784828501610351565b91505092915050565b5f61039a82610273565b9050919050565b6103aa81610390565b82525050565b5f6020820190506103c35f8301846103a1565b92915050565b5f815190506103d78161033b565b92915050565b5f602082840312156103f2576103f1610337565b5b5f6103ff848285016103c9565b91505092915050565b5f60608201905061041b5f8301866103a1565b61042860208301856103a1565b610435604083018461030f565b949350505050565b5f8115159050919050565b6104518161043d565b811461045b575f80fd5b50565b5f8151905061046c81610448565b92915050565b5f6020828403121561048757610486610337565b5b5f6104948482850161045e565b91505092915050565b5f82825260208201905092915050565b7f5472616e73666572206661696c656400000000000000000000000000000000005f82015250565b5f6104e1600f8361049d565b91506104ec826104ad565b602082019050919050565b5f6020820190508181035f83015261050e816104d5565b9050919050565b5f6040820190506105285f8301856103a1565b610535602083018461030f565b939250505056fea2646970667358221220d7b09f36a6b058f0a297f77d33447b31cf5da156a6507e7b7718941bc36d4b2664736f6c63430008150033",
  "immutableReferences": {},
  "source": "// SPDX-License-Identifier: MIT\npragma solidity ^0.8.0;\n\ninterface IERC20 {\n    function transferFrom(address sender, address recipient, uint256 amount) external returns (bool);\n    function balanceOf(address account) external view returns (uint256);\n}\n\ncontract ReceiveUSDC {\n    IERC20 public usdcToken;\n\n    event Received(address sender, uint256 amount);\n\n    constructor(address _usdcAddress) {\n        usdcToken = IERC20(_usdcAddress);\n    }\n\n    function receiveUSDC(uint256 amount) external {\n        require(usdcToken.transferFrom(msg.sender, address(this), amount), \"Transfer failed\");\n        emit Received(msg.sender, amount);\n    }\n\n    function getBalance() public view returns (uint256) {\n        return usdcToken.balanceOf(address(this));\n    }\n}\n",
  "sourcePath": "/Users/kadiralan/Desktop/usdm-eth/contracts/ReceiveUsdc.sol",
  "compiler": {
    "name": "solc",
    "version": "0.8.21+commit.d9974bed.Emscripten.clang"
  },
  "schemaVersion": "3.4.16",
  "updatedAt": "2023-12-11T13:56:02.196Z",
  "networkType": "ethereum",
  "devdoc": {
    "kind": "dev",
    "methods": {},
    "version": 1
  },
  "userdoc": {
    "kind": "user",
    "methods": {},
    "version": 1
  }
}